:03000000020006F5
:03005F0002000399
:030003000200E711
:200062005391FC439203D290D29122538E7FE58954F04401F589C28CC28D22AE82AF838E5B
:20008200048F051EBEFF011FEC4D6013758A67758CFCC28DD28C308DFDC28CC28D80E02236
:2000A200439D084391085392F775BC8090000202007DAF8274884FF5BC7F08DFFEE5BC307A
:2000C200E4FB53BCEFAEBD7F00EE2EFEEF33FFEE2EFEEF33FFACBE5304037D00EC4EF582EF
:2000E200ED4FF5832212006212006D1200A27582031200B4AE82AF83C290EFC313CE13CE99
:20010200FF741E2EFEE43FFF8E828F83C007C00612007DD006D007D2908E828F8312007D00
:0201220080CC8F
:06003500E478FFF6D8FD9F
:200013007900E94400601B7A00900128780175A000E493F2A308B8000205A0D9F4DAF2756A
:02003300A0FF2C
:20003B007800E84400600A790175A000E4F309D8FC7800E84400600C7900900001E4F0A3C3
:04005B00D8FCD9FAFA
:0D000600758107120124E5826003020003EA
:0401240075820022BE
:00000001FF
