:03000000020006F5
:03005F0002000399
:0300030002008D6B
:10006200AE82AF838E048F051EBEFF011FEC4D6072
:1000720013758A67758CFCC28DD28C308DFDC28C53
:10008200C28D80E0229000140200625391FC4392E0
:1000920003D290D291538E7FE58954F04401F589C1
:1000A200C29020B2FD120087B290B29120B20890A5
:0C00B200000A12006280F512008780E650
:06003500E478FFF6D8FD9F
:100013007900E94400601B7A009000C2780175A062
:1000230000E493F2A308B8000205A0D9F4DAF2754C
:02003300A0FF2C
:10003B007800E84400600A790175A000E4F309D860
:10004B00FC7800E84400600C7900900001E4F0A318
:04005B00D8FCD9FAFA
:0D0006007581071200BEE582600302000351
:0400BE007582002225
:00000001FF
