:03000000020006F5
:08005F00E4F508F509020003B5
:030003000200C236
:10006700AE82AF838E048F051EBEFF011FEC4D606D
:1000770013758A67758CFCC28DD28C308DFDC28C4E
:10008700C28D80E022AF8274E84FF5BC7F08EF1481
:10009700FF70FBE5BC30E4FB53BCEFAEBD7F00EE69
:1000A7002EFEEF33FFEE2EFEEF33FFACBE530403FD
:1000B7007D00EC4EF582ED4FF583225391FE43927E
:1000C70001D290759D044391045392FB75BCE05394
:1000D7008E7FE58954F04401F58975820212008C00
:1000E700858208858309C3E5089414E5096480942B
:1000F700805006750814750900C290850882850925
:1001070083120067D2908508828509831200678071
:01011700C91E
:06003500E478FFF6D8FD9F
:100013007900E94400601B7A0090011C780175A007
:1000230000E493F2A308B8000205A0D9F4DAF2754C
:02003300A0FF2C
:10003B007800E84400600A790175A000E4F309D860
:10004B00FC7800E84400600C7900900001E4F0A318
:04005B00D8FCD9FAFA
:0D000600758109120118E5826003020003F4
:0401180075820022CA
:00000001FF
