:0400000002001132B7
:03000B0002006D83
:03006A0002000E83
:03000E000201BF2D
:10006D00C0E0C007C006C0D075D000758A67758C1A
:10007D00FCAE08AF0974012EF508E43FF509D0D0A8
:10008D00D006D007D0E032C2A9850882850983D277
:10009D00A922C37403950AE4950B5003020127E5C9
:1000AD000A75F003A49000B6730200C20200C802E4
:1000BD0000E102010D750A01750B00C2901200944A
:1000CD00E5828583F024C8F50CE435F0F50D750A4D
:1000DD0002750B00120094E5828583F0C3950CE543
:1000ED00F0950D30E70122D290120094E5828583C0
:1000FD00F024C8F50CE435F0F50D750A03750B0009
:10010D00120094E5828583F0C3950CE5F0950D30D2
:10011D00E70122750A01750B0022750AFF750BFFA9
:10012D0022C37403950EE4950F50030201B8E50E3A
:10013D0075F003A4900145730201510201570201AC
:10014D007102019E750E01750F00C291120094E5AA
:10015D00828583F024F4F510740135F0F511750ED8
:10016D0002750F00120094E5828583F0C39510E5AA
:10017D00F0951130E70122D291120094E58285832A
:10018D00F024F4F510740135F0F511750E03750FAB
:10019D0000120094E5828583F0C39510E5F095116A
:1001AD0030E70122750E01750F0022750EFF750FD8
:1001BD00FF225391FC439203D290D291538E7FE54F
:1001CD008954F04401F589758A67758CFCD2A9D2E2
:0B01DD00AFD28C12009F12012E80F8A0
:06004000E478FFF6D8FD94
:10001E007900E94400601B7A009001EC780175A02C
:10002E0000E493F2A308B8000205A0D9F4DAF27541
:02003E00A0FF21
:100046007800E84400600A790175A000E4F309D855
:10005600FC7800E84400600C7900900001E4F0A30D
:04006600D8FCD9FAEF
:0D0011007581111201E8E582600302000E06
:0401E80075820022FA
:00000001FF
