:03000000020006F5
:03005F0002000399
:0300030002011BDC
:10006200AE82AF838E048F051EBEFF011FEC4D6072
:1000720013758A67758CFCC28DD28C308DFDC28C53
:10008200C28D80E022AF8274E84FF5BC7F08EF1486
:10009200FF70FBE5BC30E4FB53BCEFAEBD7F00EE6E
:1000A2002EFEEF33FFEE2EFEEF33FFACBE53040302
:1000B2007D00EC4EF582ED4FF58322AF82C374646E
:1000C2009508E495095006750864750900AE087D27
:1000D2000074322DF582E43EF583750A648D0BC0FF
:1000E2000712018DAD82AE83D007E4C39DFD74017A
:1000F2009EFEEF70128DFAC374FF9DE49E5004437E
:10010200F2022253F2FD228DFBC374FF9DE49E5046
:100112000443F3022253F3FD225391F743920875ED
:100122009D044391045392FB75BCE075D80075E9B8
:100132000075F90075D90075DA4275086475090011
:100142007582001200BD75D840538E7FE58954F048
:100152004401F58975820212008785820A85830B24
:100162009000641201B6750AFF750B0312018DAE81
:1001720082AF837464C39EF508E49FF5097582001B
:100182001200BD90001412006280C97A10E4FBFCD8
:10019200E58225E0F582E58333F583EB33FBEC332F
:1001A200FCEB950AF5F0EC950B4006FCABF04382B4
:0401B20001DADD226F
:06003500E478FFF6D8FD9F
:100013007900E94400601B7A009001D7780175A04C
:1000230000E493F2A308B8000205A0D9F4DAF2754C
:02003300A0FF2C
:1001B600E582850AF0A4C582C0F0850BF0A4D0F0D4
:0D01C60025F0C583850AF0A42583F583226A
:10003B007800E84400600A790175A000E4F309D860
:10004B00FC7800E84400600C7900900001E4F0A318
:04005B00D8FCD9FAFA
:0D00060075810B1201D3E582600302000337
:0401D300758200220F
:00000001FF
