:03000000020006F5
:08005F00E4F508F509020003B5
:0300030002008C6C
:10006700AE82AF838E048F051EBEFF011FEC4D606D
:1000770013758A67758CFCC28DD28C308DFDC28C4E
:10008700C28D80E0225391FE439201D290538E7F1E
:10009700E58954F04401F589E4F508F5090508E414
:1000A700B508020509C3740A950874808509F063C9
:1000B700F08095F05007B290E4F508F5099000320A
:0500C70012006780D863
:06003500E478FFF6D8FD9F
:100013007900E94400601B7A009000D0780175A054
:1000230000E493F2A308B8000205A0D9F4DAF2754C
:02003300A0FF2C
:10003B007800E84400600A790175A000E4F309D860
:10004B00FC7800E84400600C7900900001E4F0A318
:04005B00D8FCD9FAFA
:0D0006007581091200CCE582600302000341
:0400CC007582002217
:00000001FF
