:03000000020006F5
:03005F0002000399
:0300030002008771
:10006200AE82AF838E048F051EBEFF011FEC4D6072
:1000720013758A67758CFCC28DD28C308DFDC28C53
:10008200C28D80E0225391FC439203D290D29153CD
:100092008E7FE58954F04401F5897E007F00C2908D
:1000A200900064C007C006120062D29090006412F1
:1000B2000062D006D0070EBE00010FC3EE9403EF1C
:1000C200940040DAC2919001F4120062D291900140
:0600D200F412006280C47C
:06003500E478FFF6D8FD9F
:100013007900E94400601B7A009000DC780175A048
:1000230000E493F2A308B8000205A0D9F4DAF2754C
:02003300A0FF2C
:10003B007800E84400600A790175A000E4F309D860
:10004B00FC7800E84400600C7900900001E4F0A318
:04005B00D8FCD9FAFA
:0D0006007581071200D8E582600302000337
:0400D800758200220B
:00000001FF
