:03000000020006F5
:08005F00E4F508F509020003B5
:0300030002008C6C
:10006700AE82AF838E048F051EBEFF011FEC4D606D
:1000770013758A67758CFCC28DD28C308DFDC28C4E
:10008700C28D80E0225391F043920FD290D291D249
:1000970092D293538E7FE58954F04401F589E4F5B4
:1000A70008F509C3E4950874808509F063F0809525
:1000B700F05002C290C37401950874808509F063FB
:1000C700F08095F05002C291C37402950874808540
:1000D70009F063F08095F05002C292C3740395084B
:1000E70074808509F063F08095F05002C293900107
:1000F700F4120067D290D291D292D2930508E4B558
:1001070008020509C37404950874808509F063F033
:100117008095F05005E4F508F5099001F4120067A1
:030127000200AA29
:06003500E478FFF6D8FD9F
:100013007900E94400601B7A0090012E780175A0F5
:1000230000E493F2A308B8000205A0D9F4DAF2754C
:02003300A0FF2C
:10003B007800E84400600A790175A000E4F309D860
:10004B00FC7800E84400600C7900900001E4F0A318
:04005B00D8FCD9FAFA
:0D00060075810912012AE5826003020003E2
:04012A0075820022B8
:00000001FF
