:03000000020006F5
:08005F00E4F508F509020003B5
:0300030002008C6C
:10006700AE82AF838E048F051EBEFF011FEC4D606D
:1000770013758A67758CFCC28DD28C308DFDC28C4E
:10008700C28D80E0225391F8439207D290D291D249
:1000970092538E7FE58954F04401F589E4F508F51C
:1000A700090508E4B508020509C3740295087480B8
:1000B7008509F063F08095F05028C290C3740595C8
:1000C7000874808509F063F08095F05015C291C3DC
:1000D7007408950874808509F063F08095F05002E4
:1000E700C292C3740A950874808509F063F08095FD
:1000F700F0500BD290D291D292E4F508F509900016
:0601070032120067809B2C
:06003500E478FFF6D8FD9F
:100013007900E94400601B7A00900111780175A012
:1000230000E493F2A308B8000205A0D9F4DAF2754C
:02003300A0FF2C
:10003B007800E84400600A790175A000E4F309D860
:10004B00FC7800E84400600C7900900001E4F0A318
:04005B00D8FCD9FAFA
:0D00060075810912010DE5826003020003FF
:04010D0075820022D5
:00000001FF
