:03000000020006F5
:03005F0002000399
:030003000200BD3B
:10006200AE82AF838E048F051EBEFF011FEC4D6072
:1000720013758A67758CFCC28DD28C308DFDC28C53
:10008200C28D80E022AF8274E84FF5BC7F08EF1486
:10009200FF70FBE5BC30E4FB53BCEFAEBD7F00EE6E
:1000A2002EFEEF33FFEE2EFEEF33FFACBE53040302
:1000B2007D00EC4EF582ED4FF583225391FE439283
:1000C20001D290759D084391085392F775BCE05395
:1000D2008E7FE58954F04401F58975820312008709
:1000E200AE82AF83C3E49E74029F50EEC2907582CB
:1000F20003120087AE82AF8374FE2F40F1D290804C
:01010200D923
:06003500E478FFF6D8FD9F
:100013007900E94400601B7A00900107780175A01C
:1000230000E493F2A308B8000205A0D9F4DAF2754C
:02003300A0FF2C
:10003B007800E84400600A790175A000E4F309D860
:10004B00FC7800E84400600C7900900001E4F0A318
:04005B00D8FCD9FAFA
:0D000600758107120103E58260030200030B
:0401030075820022DF
:00000001FF
