:03000000020006F5
:03005F0002000399
:030003000200BD3B
:10006200AE82AF838E048F051EBEFF011FEC4D6072
:1000720013758A67758CFCC28DD28C308DFDC28C53
:10008200C28D80E022AF8274E84FF5BC7F08EF1486
:10009200FF70FBE5BC30E4FB53BCEFAEBD7F00EE6E
:1000A2002EFEEF33FFEE2EFEEF33FFACBE53040302
:1000B2007D00EC4EF582ED4FF583225391FC439285
:1000C20003D290D291759D0C43910C5392F375BC5F
:1000D200E0538E7FE58954F04401F589758202125E
:1000E2000087AE82AF83C3E49E74029F5002C29027
:1000F200758202120087AF8374FE2F4002D2907580
:100102008203120087AE82AF83C3E49E74029F50C3
:1001120002C291758203120087AF8374FE2F4002E0
:0A012200D29190006412006280B2D6
:06003500E478FFF6D8FD9F
:100013007900E94400601B7A00900130780175A0F3
:1000230000E493F2A308B8000205A0D9F4DAF2754C
:02003300A0FF2C
:10003B007800E84400600A790175A000E4F309D860
:10004B00FC7800E84400600C7900900001E4F0A318
:04005B00D8FCD9FAFA
:0D00060075810712012CE5826003020003E2
:04012C0075820022B6
:00000001FF
