:03000000020006F5
:03005F0002000399
:0300030002008771
:10006200AE82AF838E048F051EBEFF011FEC4D6072
:1000720013758A67758CFCC28DD28C308DFDC28C53
:10008200C28D80E0225391FE439201D290538E7F23
:10009200E58954F04401F589C29090000112006292
:0A00A200D29090000112006280EE7F
:06003500E478FFF6D8FD9F
:100013007900E94400601B7A009000B0780175A074
:1000230000E493F2A308B8000205A0D9F4DAF2754C
:02003300A0FF2C
:10003B007800E84400600A790175A000E4F309D860
:10004B00FC7800E84400600C7900900001E4F0A318
:04005B00D8FCD9FAFA
:0D0006007581071200ACE582600302000363
:0400AC007582002237
:00000001FF
