:0400000002001132B7
:03000B0002006D83
:03006A0002000E83
:03000E0002017676
:10006D00C0E0C007C006C0D075D000758A67758C1A
:10007D00FCAE08AF0974012EF508E43FF509D0D0A8
:10008D00D006D007D0E032C2A9850882850983D277
:10009D00A922E4B50C05B50D0280187401B50C0646
:1000AD0014B50D0280197402B50C06E4B50D02806D
:1000BD002D804E750A05750B00750C01750D00E54B
:1000CD000A450B603CB290120094E5828583F024C2
:1000DD0064F50EE435F0F50F750C02750D00120088
:1000ED0094E5828583F0C3950EE5F0950F30E70119
:1000FD0022150A74FFB50A02150B750C01750D005A
:10010D0022750CFF750DFF22E4B51005B5110280A7
:10011D00187401B5100614B5110280137402B510D0
:10012D0006E4B5110280218039751001751100B2F8
:10013D0091120094E5828583F024C8F512E435F020
:10014D00F513751002751100120094E5828583F088
:10015D00C39512E5F0951330E70122751001751165
:10016D0000227510FF7511FF225391FC439203D2AB
:10017D0090D291538E7FE58954F04401F589758AAB
:10018D0067758CFCD2A9D2AFD28C12009F120115CB
:02019D0080F8E8
:06004000E478FFF6D8FD94
:10001E007900E94400601B7A009001A3780175A075
:10002E0000E493F2A308B8000205A0D9F4DAF27541
:02003E00A0FF21
:100046007800E84400600A790175A000E4F309D855
:10005600FC7800E84400600C7900900001E4F0A30D
:04006600D8FCD9FAEF
:0D00110075811312019FE582600302000E4D
:04019F007582002243
:00000001FF
