:03000000020006F5
:03005F0002000399
:0300030002027383
:20006200AE82AF83538E7FE58954F04401F5898E048F051EBEFF011FEC4D6013758A6675A0
:200082008CFCC28DD28C308DFDC28CC28D80E0227F00EF2408F98780EF90028B93F5A090F2
:2000A2000001C007120062D00775A0FF0FBF080040E022AE82AF837C007D00C3EC9EED9FCB
:2000C2005024C007C006C005C004120092D004D005D006D0078C028D0374082AFAE43BFBC2
:2000E2008A048B0580D5227F00EF2408F876FF0FBF080040F422E5822408F9870743070FC3
:20010200E510540FF45FF722AF8274042F2408F987074307F0E510540FC454F0F45FF72288
:200122007F00EF2408F876000FBF080040F4900BB80200B57F007E00EE90029393FDC0073A
:20014200C006C0051200E9D00575100F8D821200F89000C81200B5D006D0070EBE060040B7
:20016200D70FBF030040CF227F00EF75F004A42499FD740235F0FE7C00C007C006C005C048
:20018200041200E9D004D005D006D0077B008C028B01EAC399FA20E741C3EA6480948450F2
:2001A200397403C39AFAEB2DF582E43EF583E493F989F005F07401800225E0D5F0FBF989F1
:2001C200108A82C007C006C005C004C00312010AD003D004D005D006D0070BBB040040AE2A
:2001E200900064C007C006C005C0041200B5D004D005D006D0070CBC0800500302017B0F26
:20020200BF0400500302016C227F007E007D00ED9002A993FC8CF005F07401800225E0D5C2
:20022200F0FBFCC007C006C005C0041200E9D004D005D0068C108E82C006C005C004120038
:20024200F8D004D005D0068C108E82C006C00512010A9000641200B5D005D006D0070DBDCA
:20026200040040AB0EBE040040A30FBF0200409B227580FF75A0FF12012212013612016A0A
:0502820012020B80F2E6
:20028B00FEFDFBF7EFDFBF7F00010203020100010203010203000203000103000102000138
:0202AB0003024C
:06003500E478FFF6D8FD9F
:200013007900E94400601B7A009002AD780175A000E493F2A308B8000205A0D9F4DAF275E4
:02003300A0FF2C
:20003B007800E84400600A790175A000E4F309D8FC7800E84400600C7900900001E4F0A3C3
:04005B00D8FCD9FAFA
:0D000600758110120287E58260030200037D
:04028700758200225A
:00000001FF
