:03000000020006F5
:03005F0002000399
:0300030002006296
:200062005391FC4392034391085392F7538E7FE58954F04401F589759D0875BCE075BCEBF2
:200082007E087F001EBEFF011FEE4F70F7E5BC30E4FB53BCEF75D84075D90075DA4275FA31
:2000A2008075C12075CE5075CFAA75994143A20175827875835653A2FEC290758A67758C49
:1300C200FCC28DD28C308DFDC28CC28DD29043C11080FE37
:06003500E478FFF6D8FD9F
:200013007900E94400601B7A009000D9780175A000E493F2A308B8000205A0D9F4DAF275BA
:02003300A0FF2C
:20003B007800E84400600A790175A000E4F309D8FC7800E84400600C7900900001E4F0A3C3
:04005B00D8FCD9FAFA
:0D0006007581071200D5E58260030200033A
:0400D500758200220E
:00000001FF
