:0400000002001132B7
:03000B0002006D83
:03006A0002000E83
:03000E0002021BD0
:10006D00C0E0C007C006C001C0D075D000758A675A
:10007D00758CFCAE12AF1374012EF512E43FF5131F
:10008D00758000E510540124FF92A0E51003540182
:10009D0024FF92A1E5100303540124FF92A2E51061
:1000AD002408F98780AF100F74075FF510E511F480
:1000BD00F590D0D0D001D006D007D0E032AE82AFCF
:1000CD0083C2A9AC12AD13D2A98E028F031EBEFF3F
:1000DD00011FEA4B601CC2A9AA12AB13D2A9EAB543
:1000ED000406EBB5050280EEC2A9AC12AD13D2A980
:1000FD0080D722AE82AF837D007C00EC2408F87699
:10010D00000CBC080040F4EF30E70B7D01C3E49E0A
:10011D00FBE49FFC80048E038F047F07EF2408F916
:10012D0075140A7515008B828C83C007C005C00439
:10013D00C003C001120287AA82AE83D001D003D0C2
:10014D0004EA24D8F582EE3402F583E493F77514AE
:10015D000A7515008B828C8312025EAB82AC83D044
:10016D0005D007EF60051FEB4C70B1ED600AEF6035
:10017D0007EF142408F8764022E582FF24F8500199
:10018D0022EF2408F9AE1453060F7F00EE24D8F5A4
:10019D0082EF3402F583E493F722E582FF24F850D1
:1001AD000122EF2408F8A614227F00EF2408F87628
:1001BD00000FBF080040F422E582FF24F850012211
:1001CD008FF005F07401800225E0D5F0FB4211227D
:1001DD00E582FF24F85001228FF005F074018002B2
:1001ED0025E0D5F0FBF452112285821122E582FF24
:1001FD0024F850067D007E0080118FF005F074010B
:10020D00800225E0D5F0FBFFFD7E008D1122E593E8
:10021D00759300E5947594FFE591759100E59275E0
:10022D0092FF5395F8439607538E7FE58954F0441A
:10023D0001F589758A67758CFCD2A9D2AFD28C90E5
:10024D0022B81201007582001201C57582070201E4
:01025D00C5DB
:1002D8003F065B4F666D7D077F6F777C395E79716E
:10025E007A10E4FBFCE58225E0F582E58333F58335
:10026E00EB33FBEC33FCEB9514F5F0EC95154006F7
:09027E00FCABF0438201DADD2241
:06004000E478FFF6D8FD94
:10001E007900E94400601B7A009002E8780175A02F
:10002E0000E493F2A308B8000205A0D9F4DAF27541
:02003E00A0FF21
:10028700E514451560467A01E51425E0F514E515F2
:10029700334012F515E5829514E583951540030A59
:1002A70080E6C3E51513F515E51413F514C3E582C8
:1002B7009514F5F0E58395154005F58385F082C320
:0D02C700E51513F515E51413F514DAE12221
:100046007800E84400600A790175A000E4F309D855
:10005600FC7800E84400600C7900900001E4F0A30D
:04006600D8FCD9FAEF
:0D0011007581151202D4E582600302000E15
:0402D400758200220D
:00000001FF
