:03000000020006F5
:08005F00E4F50EF50F020003A9
:030003000201F8FF
:10006700AE82AF838E048F051EBEFF011FEC4D606D
:1000770013758A67758CFCC28DD28C308DFDC28C4E
:10008700C28D80E022C2970000209306D297758226
:100097000022209206D29775820122209106D297DC
:1000A70075820222209006D29775820322D297C2C8
:1000B700960000209306D29675820422209206D2DB
:1000C7009675820522209106D29675820622209087
:1000D70006D29675820722D296C295000020930613
:1000E700D29575820822209206D295758209222020
:1000F7009106D29575820A22209006D29575820BB9
:1001070022D295C2940000209306D29475820C22C5
:10011700209206D29475820D22209106D294758280
:100127000E22209006D29475820F22D2947582FFF8
:100137002285829910990280FB22AD82AE83AFF0AF
:100147008D828E838FF01202ADFC60188C820DBDFC
:1001570000010EC007C006C005120138D005D00641
:10016700D00780DC75820D12013875820A020138CA
:10017700AE82E583FF30E71775822DC007C00612F0
:100187000138D006D007C3E49EFCE49FFD80048EAF
:10019700048F057F00EF2408F90F75100A75110009
:1001A7008C828D83C007C005C004C001120260ABFA
:1001B70082D001D004D00574302BF775100A751161
:1001C700008C828D83120237AC82AD83D007EC4D51
:1001D70070C3EF60101FEF2408F98782C007120170
:1001E70038D00780ED75820D12013875820A020139
:1001F70038759850758BFD758DFDE589540F442032
:10020700F589D28EC299C298E58954F04401F589DF
:1002170012008CE582F50E3395E0F50F20E709858E
:100227000E82850F8312017790001E12006780E00F
:100237007A10E4FBFCE58225E0F582E58333F5835C
:10024700EB33FBEC33FCEB9510F5F0EC9511400626
:09025700FCABF0438201DADD2268
:06003500E478FFF6D8FD9F
:100013007900E94400601B7A009002CD780175A055
:1000230000E493F2A308B8000205A0D9F4DAF2754C
:02003300A0FF2C
:10026000E510451160467A01E51025E0F510E5112D
:10027000334012F511E5829510E583951140030A8C
:1002800080E6C3E51113F511E51013F510C3E582FF
:100290009510F5F0E58395114005F58385F082C34F
:0D02A000E51113F511E51013F510DAE12258
:10003B007800E84400600A790175A000E4F309D860
:10004B00FC7800E84400600C7900900001E4F0A318
:04005B00D8FCD9FAFA
:0D0006007581111202C9E58260030200033A
:1002AD0020F71430F6148883A88220F507E6A8837A
:1002BD0075830022E280F7E49322E022758200220A
:00000001FF
