:0400000002001132B7
:03000B000200737D
:09006A00750AFF750BFF02000E80
:03000E0002027B70
:10007300C0E0C007C006C0D075D000758A67758C14
:10008300FCAE08AF0974012EF508E43FF509D0D0A2
:10009300D006D007D0E032C2A9850882850983D271
:1000A300A922C2970000209306D2977582002220CE
:1000B3009206D29775820122209106D29775820209
:1000C30022209006D29775820322D297C29600000F
:1000D300209306D29675820422209206D2967582C8
:1000E3000522209106D29675820622209006D2968A
:1000F30075820722D296C2950000209306D2957589
:10010300820822209206D29575820922209106D276
:100113009575820A22209006D29575820B22D2957C
:10012300C2940000209306D29475820C222092067A
:10013300D29475820D22209106D29475820E2220CC
:100143009006D29475820F22D2947582FF221200F8
:100153009AE5828583F0C3950CFEE5F0950DFFC308
:10016300EE9405EF940050012212009A85820C85CB
:10017300830D1200A5E582FFB50A028F0B8F0A22B9
:10018300E4B50E05B50F0280187401B50E0614B55B
:100193000F0280167402B50E06E4B50F02802280AA
:1001A3003A758000750E01750F0012009AE582857D
:1001B30083F02414F510E435F0F511750E02750F74
:1001C3000012009AE5828583F0C39510E5F095113E
:1001D30030E70122750E01750F0022750EFF750FB2
:1001E300FF227405B50B067E017F0080047E007F2D
:1001F30000EEFF6009E51470057D01FE80047D00BB
:100203007E008F14E4B51205B51302800D7401B599
:10021300120614B51302800C800DED7001227512C5
:1002230001751300758005E4F512F51322740EB5FC
:100233000B067E017F0080047E007F00EE700AE5DE
:100243001760067D017F0080047D007F008E17E428
:10025300B51505B51602800D7401B5150614B5164E
:1002630002800C800DED7001227515017516007565
:100273008000E4F515F51622E58954F04401F5896B
:10028300758A67758CFCD2A9D2AFD28C1201511238
:0A02930001831201E512023080F22F
:06004000E478FFF6D8FD94
:10001E007900E94400601B7A009002A1780175A076
:10002E0000E493F2A308B8000205A0D9F4DAF27541
:02003E00A0FF21
:100046007800E84400600A790175A000E4F309D855
:10005600FC7800E84400600C7900900001E4F0A30D
:04006600D8FCD9FAEF
:0D00110075811712029DE582600302000E4A
:04029D007582002244
:00000001FF
