:0400000002001132B7
:03000B0002006D83
:03006A0002000E83
:03000E000201C02C
:10006D00C0E0C007C006C001C0D075D000758A675A
:10007D00758CFCAE11AF1274012EF511E43FF51223
:10008D00758000E510540124FF92A0E51003540182
:10009D0024FF92A1E5100303540124FF92A2E51061
:1000AD002408F98780AF100F74075FF510D0D0D0FA
:1000BD0001D006D007D0E032AE82AF83C2A9AC1119
:1000CD00AD12D2A98E028F031EBEFF011FEA4B6037
:1000DD001CC2A9AA11AB12D2A9EAB50406EBB5054B
:1000ED000280EEC2A9AC11AD12D2A980D722AE8288
:1000FD00AF837D007C00EC2408F876000CBC080072
:10010D0040F4EF30E70B7D01C3E49EFBE49FFC80E0
:10011D00048E038F047F07EF2408F975130A7514F5
:10012D00008B828C83C007C005C004C003C00112C0
:10013D000216AA82AE83D001D003D004EA2467F55B
:10014D0082EE3402F583E493F775130A7514008B70
:10015D00828C831201EDAB82AC83D005D007EF60AA
:10016D00051FEB4C70B1ED600AEF6007EF1424082A
:10017D00F8764022E582FF24F8500122EF2408F999
:10018D00AE1353060F7F00EE2467F582EF3402F5B0
:10019D0083E493F722E582FF24F8500122EF24082F
:1001AD00F8A613227F00EF2408F876000FBF080091
:1001BD0040F422E593759300E5947594FF5395F8FB
:1001CD00439607538E7FE58954F04401F589758A6E
:1001DD0067758CFCD2A9D2AFD28C9030390200FB5E
:100267003F065B4F666D7D077F6F777C395E7971DF
:1001ED007A10E4FBFCE58225E0F582E58333F583A7
:1001FD00EB33FBEC33FCEB9513F5F0EC951440066B
:09020D00FCABF0438201DADD22B2
:06004000E478FFF6D8FD94
:10001E007900E94400601B7A00900277780175A0A0
:10002E0000E493F2A308B8000205A0D9F4DAF27541
:02003E00A0FF21
:10021600E513451460467A01E51325E0F513E51468
:10022600334012F514E5829513E583951440030ACD
:1002360080E6C3E51413F514E51313F513C3E5823D
:100246009513F5F0E58395144005F58385F082C393
:0D025600E51413F514E51313F513DAE12296
:100046007800E84400600A790175A000E4F309D855
:10005600FC7800E84400600C7900900001E4F0A30D
:04006600D8FCD9FAEF
:0D001100758114120263E582600302000E87
:04026300758200227E
:00000001FF
