:03000000020006F5
:03005F0002000399
:030003000200A256
:200062005391FC439203D290D29122538E7FE58954F04401F589C28CC28D22AE82AF838E5B
:20008200048F051EBEFF011FEC4D6013758A67758CFCC28DD28C308DFDC28CC28D80E02236
:2000A20012006212006D7F00C290D291900096C00712007DD290C29190009612007DD0075A
:2000C2000FBF060040E27F00C290C2919003E8C00712007DD290D2919003E812007DD0078D
:0800E2000FBF020040E280BEE6
:06003500E478FFF6D8FD9F
:200013007900E94400601B7A009000EE780175A000E493F2A308B8000205A0D9F4DAF275A5
:02003300A0FF2C
:20003B007800E84400600A790175A000E4F309D8FC7800E84400600C7900900001E4F0A3C3
:04005B00D8FCD9FAFA
:0D0006007581071200EAE582600302000325
:0400EA0075820022F9
:00000001FF
